:020000040800F2
:1000000070040020BD0E0008BD0C0008BF0C0008E5
:10001000C10C0008C30C0008C50C0008000000005B
:10002000000000000000000000000000C70C0008F5
:10003000C90C000800000000CB0C0008CD0C000823
:10004000F10E0008F50E0008F90E0008FD0E00087C
:10005000010F0008050F0008D10C0008E30C000890
:10006000090F00080D0F0008110F0008150F0008F8
:10007000190F00081D0F0008210F0008250F0008A8
:10008000290F00082D0F0008310F000800000000A4
:10009000000000000000000000000000350F000814
:1000A000390F00083D0F0008410F0008450F0008F8
:1000B000490F00084D0F0008510F0008550F0008A8
:1000C000590F00085D0F0008610F0008650F000858
:1000D000690F00086D0F0008710F0008750F000808
:1000E000790F00087D0F0008810F00080000000054
:1000F0000000000000000000000000000000000000
:1001000000000000000000000000000000000000EF
:100110000000000000000000050D0008850F000829
:1001200010B586B000F03CF900F092F86846102156
:1001300000F05EF98848894C016841F010010160C7
:10014000026802F0100204920499026842F0200250
:100150000260036803F0200304930499026842F0EC
:1001600004020260036803F0040304930499026824
:1001700042F0080202600122006800F008000490CA
:100180000B210498204600F0F8F9032074490090F0
:100190000191012202926946724800F02DF90B216B
:1001A00000911122019200210291022203926946DC
:1001B000204600F021F900220021062000F022FA5A
:1001C000062000F03CFA00220021072000F01AFA75
:1001D000072000F034FA00F08AF8634C634820648A
:1001E0004FF0FF314FF48070A064616404F140006F
:1001F00000F050FA02A8102100F0FAF866A05C495D
:10020000D0E90023CDE9002300206060A060E06019
:1002100020616061A0612160204600F0DBFA4FF4AC
:100220008050029002A9204600F0F3FA10210091BC
:10023000002201926946204600F0DAFB4D48C16871
:1002400041F00101C160026842F001020260FEE774
:1002500010B54948016821F0F80141F080010160C2
:10026000026842F00102026001688907FCD5426A17
:1002700042F001024262416A8907FCD53F490A689F
:1002800042F480720A60016A41F480310162016ABD
:1002900021F480310162016A21F4407141F400715E
:1002A0000162016A41F400410162416821F0F001FC
:1002B0004160416821F4E0614160416821F460518E
:1002C00041604168890889004160416811F00C0F64
:1002D000FBD12B4C204600F0B1FB2A48016841F0CD
:1002E000040101602046BDE8104000F0B3BB10B52A
:1002F00086B001A8142100F07BF823482349046844
:1003000044F010040460002300681A4C00F0100050
:10031000009000980A681E481E4A03704FF480013E
:10032000116041F63F73002102914FF47A72ADF8EB
:100330000430039201A9204600F094FB206820F0CD
:1003400080002060616821F070016160A06820F089
:100350008000A06006B010BD18100240000C0140E3
:10036000000011100008014010000020002800408B
:10037000002C0140001000400010024000700040BE
:1003800000127A0010E000E01C1002400CED00E0CA
:1003900036E400E004E100E000000000000000009E
:1003A00080B5032000F021F9002000F0A9FB00F047
:1003B000C7FB002002BD30B4002513E050F8042B29
:1003C000D30744BFA9F101039A18091F042942F871
:1003D000045BFAD213468C0744BF15809B1CC907E7
:1003E00048BF1D7050F8041B0029E7D130BC70478E
:1003F000002200F0F5BB00002DE9F8430246002082
:100400000025644BDFF8909101270E68AF403E4015
:10041000BE4240F0AC804C686CB3012C20D0022C62
:1004200023D0032C32D0112C1CD0122C20D0DFF87A
:100430006CE174451CBFDFF868E174451BD0DFF840
:1004400064E174451CBFDFF860E1744513D0DFF848
:100450005CE174451CBFDFF858E174450BD016E031
:10046000C86814E0C868001D11E0C86808300EE0D4
:10047000C8680C300BE0886808B9042007E0012840
:1004800019BF082057610820176100E00020B6F569
:10049000807F03D294464FEA850E05E0A5F108045B
:1004A00002F1040C4FEA840E0F27DCF8008007FAF3
:1004B0000EF428EA040400FA0EFE4EEA0404CCF816
:1004C00000404C68E40052D5D9F80040DFF8E4E081
:1004D00044F00104C9F800404FEA950CD9F80040F7
:1004E00004F0010400944FEA8508009C5EF82C405B
:1004F00008F00C0807FA08F724EA07072E4CA24276
:1005000008BF00240ED02D4CA24208BF012409D000
:100510002B4CA24208BF022404D02A4CA2420CBF9A
:100520000324042404FA08F427434EF82C70F743FC
:100530004C68E4031C684CBF34433C401C604C686E
:10054000A4035C684CBF34433C405C604C68E402EC
:100550009C684CBF34433C409C604C68A40203D56B
:10056000DF683E43DE6002E0DE683740DF606D1C1E
:100570000F2D7FF649AFBDE8F18302B9090401618F
:100580007047114A136803421CBF106000F01EB888
:1005900070470000000401401810024000001110D4
:1005A0000000121000002110000022100000311085
:1005B000000032100800014000080140000C01401A
:1005C0000010014000140140140401407047000075
:1005D0000901020006D5294A00F00F00104400F876
:1005E000041C7047264B19547047264B19684FF668
:1005F000FF020002114000F4E06008432249084372
:100600001860704738B51F4B1C68C4F30223C3F150
:100610000704052C28BF04241D1D072D34BF00230B
:10062000DB1E012505FA04F4641E2140994005FAF9
:1006300003F35B1E1A401143BDE83440C8E70122B2
:1006400000F01F01114BFFE78A40400943F82020CA
:10065000704710B5401EB0F1807F01D3012010BD5E
:100660000B4C60600F214FF0FF30FFF7B1FF00210E
:10067000A16007202060002010BD000018ED00E000
:1006800000E400E00CED00E00000FA0500E100E00D
:1006900010E000E010B504003FD0607C20B90021DC
:1006A0002174204600F069FA02206074204600F0B0
:1006B0003FF880BB204600F05AF860BB20684168D4
:1006C000C908C9004160A068DFF8601018B1486827
:1006D0004008400048600A68A06822F46072024343
:1006E0000A60606810F1010F04D1012000F092FA55
:1006F00088B1401E21688A681209120142EA10423C
:100700008A6080B22168CA68120C40EA0240C86060
:1007100000F02BF818B104206074012010BD0121F5
:10072000E0736173A1736174002010BD2C6C0040F4
:1007300038B5040001D1012032BD00F010F800F0FE
:100740009FFA054620684168080706D400F098FA29
:1007500000F023F8F6D3032032BD002032BD20681C
:10076000416821F008014160704720461AE038B521
:10077000044600F085FA0546206841688A0606D4DA
:1007800000F07EFA00F009F8F6D3032032BD41688C
:1007900041F010014160002032BD401B40F2E931C0
:1007A0008842704738B504462068416821F010013E
:1007B000416000F065FA054620684168880606D465
:1007C00000F05EFAFFF7E9FFF6D3032032BD002008
:1007D00032BD000038B5040001D1012032BD00F067
:1007E00014F818B900F00DF800F0DDF9FFE7022069
:1007F0006870211D206800F077F8012068700020E3
:1008000032BD002129702046704704F13C0568780C
:10081000704738B500F05CF801D1022032BD0120EC
:10082000207002226270DFF840012A68936803405A
:1008300093600A68002A37D0102A37D0202A37D090
:10084000302A37D0402A2BD0502A1ED0602A20D000
:10085000702A0BD0B2F5805F03D0B2F5005F0CD0E8
:100860002CE028688168C908C9000CE000F02BF86A
:100870002868816841F0770105E000F024F82868D5
:10088000816841F48041816018E000F018F850213F
:1008900011E0CA684968286800F083F860210AE01E
:1008A00000F00DF8402106E0002104E0102102E0F4
:1008B000202100E03021286800F085F80EE0CA68A9
:1008C000496828685EE0CB684A688968286882E0E1
:1008D000054605F13C04207801287047012060702E
:1008E00000212170002032BDF0B5DFF880E0036800
:1008F0001F4C204D204E214FDFF884C0704518BF9B
:10090000B0F1804F03D0604518BFB84209D14A68A2
:1009100023F07003134370451CBFB0F1804F604556
:1009200007D0B84218BFB04203D0A84218BFA042B7
:1009300003D1CA6823F4407313434A6923F0800348
:100940001343036070458B68C36218BFB0420A68E6
:10095000826203D0A84218BFA04201D10969016395
:1009600001224261F0BD00008800FFFF002C014021
:1009700000480140004401400040014000080040A0
:100980000004004010B5036A046A6408640004624D
:1009900023F00A03846924F0F00444EA0214846119
:1009A00023E010B5036A23F0100303628369046A2D
:1009B00023F4704343EA023324F0A004836144EA41
:1009C0000114046210BD826822F07002114341F0EC
:1009D00007018160704710B5846824F47F44214387
:1009E000114341EA0321816010BD1943016210BD2A
:1009F00030B500F13C031A78012A01D1022030BD44
:100A000001221A7002245C700268546824F0700499
:100A10005460046865680A681543656002689468F4
:100A200024F08004946002689468486804439460E9
:100A3000012159700020187030BD00004FF47A7207
:100A40000649B0FBF2F0401E486000238B60052091
:100A500008607047024908607047000010E000E03D
:100A60000C000020F0B5DFF880E00368DFF88C4070
:100A7000DFF88450DFF87C60DFF87470DFF86CC05A
:100A8000704518BFB0F1804F03D0604518BFB84221
:100A900009D14A6823F07003134370451CBFB0F1BD
:100AA000804F604507D0B84218BFB04203D0A8427B
:100AB00018BFA04203D1CA6823F4407313430360F4
:100AC00070458A68C26218BFB0420A88826203D049
:100AD000A84218BFA04201D1097C0163416941F0DD
:100AE000010141610120F0BD002C014000040040E3
:100AF000000800400040014000440140004801401F
:100B000038B50D4D0D4B2A7804464FF47A711868AC
:100B1000B1FBF2F2B0FBF2F0FFF79BFD50B9102CE5
:100B200008D2002221464FF0FF30FFF76BFDAC608A
:100B3000002032BD012032BD000000200C0000204A
:100B4000214881B0016841F001010160026802F0B2
:100B5000010200920099426842F08052426040686F
:100B600000F08050009000981848016821F0E06182
:100B700041F00071016001B070470068144988427B
:100B800000D0704780B500F081F81248124A016821
:100B900041F0006101600121006800F000600090F8
:100BA0000098116001BD81B000680C49884209D1EC
:100BB0000548026842F400620260006800F40060C8
:100BC0000090009801B070471810024004000140E6
:100BD000002800401C1002403C044242002C01400E
:100BE00000B500BF130096469446103928BFA0E810
:100BF0000C50FAD85FEA417C28BF0CC048BF40F8CF
:100C0000042BC90728BF20F8022B48BF00F8012B8E
:100C100000BD000010B500210128184C02D00228A8
:100C200020D028E0206A40F202320240B2F5817FF3
:100C300008BF4FF400411ED000F44072B2F5007FAF
:100C400005D1606A820716D549F6404113E000F4E9
:100C50004070B0F5407F0ED1206882030BD54FF273
:100C6000244108E000F01AF86168C1F38131491CA1
:100C70004900B0FBF1F1084610BD00000010024031
:100C800001484068704700BF000000200249FFE7AC
:100C9000012008607047000020000E420448054A09
:100CA000006813680449C3F3C222895CC8407047D6
:100CB0000C00002004100240E80E00087047FEE718
:100CC000FEE7FEE7FEE770477047704700F066B842
:100CD0002B480168491E8941C90F01600120FFF7B7
:100CE00050BC10B5264C27480023236001220B215D
:100CF000FFF743FC002161600220BDE81040FFF7D0
:100D000040BC000038B520491D4C6FF00100086060
:100D10002268012A33D160681A4D0A2802DB0020BC
:100D2000606008E0092827D8DFE800F00511161DEB
:100D3000090B0D11161D00F02DF801220FE0002205
:100D400011E0002208E000F025F800220EE0002269
:100D500000F020F8012202E000F01CF8002200F070
:100D600015F8012205E000F015F8012200F00EF858
:100D70000022082100F00BF86068401C606031BD63
:100D800064000020000C01401010004002212846A1
:100D9000FFF7F3BB01212846FFF7EFBB02494A6882
:100DA000087882184A6070470000002010B50F4A8A
:100DB0000F49106840F00100106053680D480B4067
:100DC0005360146804401460116821F4802111609C
:100DD0004FF41F01506820F4FE0050609160002025
:100DE000D0624FF00061044A116010BD0010024053
:100DF0000000FFF8FFFFF6FE08ED00E030B450F809
:100E0000041B79B10268436802440830DC0744BF20
:100E1000A9F10104E31852F8045B43F8045B091FCD
:100E2000F9D1ECE730BC704710B507497944183167
:100E3000064C7C44163404E00A68081D11448847B7
:100E40000146A142F8D110BD0800000028000000B2
:100E500067F5FFFF5C0000001000002000000000AC
:100E60009DFFFFFF10000000640000000000002054
:100E70000000000000F00DF8002801D0FFF7D4FFBB
:100E8000AFF300800020AFF30080FFF749F900F0D6
:100E900002F80120704700F001B80000074638460C
:100EA00000F002F8FBE7000080B5AFF30080024AD3
:100EB00011001820ABBEFBE7260002000148804766
:100EC00001480047AD0D0008DD0E000801000000DC
:100ED000000000001000000000366E01AFF300803B
:100EE000AFF30080FFF7C6FF00000000010203041B
:100EF000FFF7FEBFFFF7FEBFFFF7FEBFFFF7FEBF26
:100F0000FFF7FEBFFFF7FEBFFFF7FEBFFFF7FEBF15
:100F1000FFF7FEBFFFF7FEBFFFF7FEBFFFF7FEBF05
:100F2000FFF7FEBFFFF7FEBFFFF7FEBFFFF7FEBFF5
:100F3000FFF7FEBFFFF7FEBFFFF7FEBFFFF7FEBFE5
:100F4000FFF7FEBFFFF7FEBFFFF7FEBFFFF7FEBFD5
:100F5000FFF7FEBFFFF7FEBFFFF7FEBFFFF7FEBFC5
:100F6000FFF7FEBFFFF7FEBFFFF7FEBFFFF7FEBFB5
:100F7000FFF7FEBFFFF7FEBFFFF7FEBFFFF7FEBFA5
:080F8000FFF7FEBFFFF7FEBF03
:0400000508000EDD04
:00000001FF
